:020000040000FA
:10000000B8020010690100007101000073010000D6
:100010007501000077010000790100000000000078
:100020000000000000000000000000007B01000054
:100030007D010000000000007F0100008101000040
:1000400083010000830100008301000083010000A0
:100050008301000083010000830100008301000090
:100060008301000083010000830100008301000080
:100070008301000083010000830100008301000070
:100080008301000083010000830100008301000060
:100090008301000083010000830100008301000050
:1000A00083010000010300008301000083010000C0
:1000B0008301000083010000830100008301000030
:1000C00083010000830100008301000000F002F8BA
:1000D00000F03AF80AA090E8000C82448344AAF1A8
:1000E0000107DA4501D100F02FF8AFF2090EBAE8A6
:1000F0000F0013F0010F18BFFB1A43F0010318475C
:100100005808000078080000103A24BF78C878C169
:10011000FAD8520724BF30C830C144BF04680C600D
:10012000704700000023002400250026103A28BF55
:1001300078C1FBD8520728BF30C148BF0B60704759
:100140001FB51FBD10B510BD00F04EF81146FFF7EA
:10015000F7FF00F02BFB00F06CF803B4FFF7F2FFA1
:1001600003BC00F073F800000948804709480047C5
:10017000FEE7FEE7FEE7FEE7FEE7FEE7FEE7FEE757
:10018000FEE7FEE704480549034A054B70470000B7
:10019000B9040000CD000000B8000010B802001043
:1001A000B800001010B5431C02E010F8011B71B13B
:1001B0008107FAD14FF0013202C88C1A8C4314EA3D
:1001C000C211F9D0C01A0A0603D0C01E10BDC01A51
:1001D00010BD0A0401D0801E10BD0902FCD0401ED3
:1001E00010BD704770477047754600F02BF8AE465B
:1001F00005006946534620F00700854618B020B533
:10020000FFF7C0FFBDE820404FF000064FF00007A9
:100210004FF000084FF0000B21F00701AC46ACE8AE
:10022000C009ACE8C009ACE8C009ACE8C0098D461B
:10023000704710B50446AFF300802046BDE810407B
:10024000FFF78BBF00487047540000100149182089
:10025000ABBEFEE7260002007047000001461D48C5
:10026000C26902F0040070B11B4B08681840194BBA
:1002700018634868586388689863C868D863212001
:1002800058600120704702F4806070B1124B08681A
:100290001840104B18644868586488689864C868A7
:1002A000D864412058600120ECE702F4802070B14E
:1002B000094B08681840074B1865486858658868F6
:1002C0009865C868D865812058600120DAE7002069
:1002D000D8E700000040044000000FC070B504469D
:1002E000002500BF03E0605D00F0BAF86D1C605DA2
:1002F0000028F8D170BD000000000000FFFFFFFFE4
:1003000000B51548436803F4807030B113480068A5
:10031000401C1249086000F08DF903F4007030B100
:100320000F480068401C0E49086000F09DF90D4818
:10033000806800F0400020B10A488068000C0A493B
:1003400008600A48806800F0400020B107488068D3
:10035000000C0549086000BD000004400C000010BE
:100360001000001000400440000000100080044015
:1003700010B50446D4B1012C04D0022C13D0042CA7
:100380001DD114E00F48046001200F4908600F4997
:10039000086000200C4908610C4908610A4988601E
:1003A0000A4988600CE00748046009E000BF0120AA
:1003B0000449086000F098FA0248046000E000BFB9
:1003C00000BF10BD00C00340008004400040044056
:1003D00010B5FC200B490864022000F015F8282015
:1003E00000F012F80E2000F00FF8012000F00CF8D9
:1003F000062000F009F8802000F006F8642000F0E4
:10040000FBF810BD00C0092070B5044604F0F006EA
:1004100046F00800114908700A2000F0EDF80F4876
:10042000543890F8540020F008000C49087004F08B
:100430000F052D0145F008000849543981F8540092
:100440000A2000F0D9F80548543890F8540020F0FC
:1004500008000249543981F8540070BD54C0092085
:1004600070B5044604F0F00646F00C00114908701F
:100470000A2000F0C1F80F48543890F8540020F0DA
:1004800008000C49087004F00F052D0145F00C0020
:100490000849543981F854000A2000F0ADF80548A5
:1004A000543890F8540020F008000249543981F87B
:1004B000540070BD54C0092020204B4908604B48AF
:1004C000D0F8A00100F0200030B100BF464800681D
:1004D00000F040000028F9D0032043499C3908600F
:1004E00000204249C1F8A8013F490C3108600120B1
:1004F0003D49943908603E483C4984310860AA204F
:100500003A498C3108605520086001203749803114
:100510000860AA2035498C31086055203349C1F85C
:100520008C0000BF31488830006800F080600028EF
:10053000F8D003202D4980310860AA202B49C1F84A
:100540008C00552029498C31086000BF274888302D
:10055000006800F04070B0F1407FF7D123202349BC
:10056000A4310860AA202149C1F8AC0055201F49D8
:10057000AC31086001201D49A0310860AA201B4948
:10058000AC31086055201949C1F8AC0000BF1748CC
:10059000A830006800F480600028F8D003201349D8
:1005A000A0310860AA201149C1F8AC0055200F49BC
:1005B000AC31086000BF0D48A830006800F44070FE
:1005C000B0F5407FF7D10B480849C43108600020DE
:1005D0000649C1F8C8010846006820F4704040F49C
:1005E0008040086070470000A0C10F4000C00F406D
:1005F00063000500DE8728040C49096841F0040106
:100600000A4AC43AC2F8C41046F2A711084AD16097
:10061000022151600121516000BF05498968814272
:10062000FBD30021024A516070470000C4C00F4054
:100630000080004009480A49096A01600849496A7E
:1006400041600749896A81600549C96AC160012121
:10065000044A11700421024A5160704724000010BE
:10066000004004400900001009480A49096A016075
:100670000849496A41600749896A81600549C96A30
:10068000C1600121044A11700421024A516070477F
:100690004400001000800440080000102148006859
:1006A00040F4C0401F49C439C1F8C4001E48006866
:1006B0006FF30B001C4908600846006840F0050015
:1006C00008600846006840F420600860012017496F
:1006D000086017490860002014490861144908613E
:1006E00012498860124988601248104948611049CF
:1006F000486100200D4908600D4908601920002854
:1007000009DB00F01F02012191404209920002F131
:10071000E022C2F8001100BF012004490861044929
:1007200008617047C4C00F4000C002400080044010
:100730000040044009007F002DE9F0419AB00446D2
:10074000002534B9302001A94855681CC5B20020E5
:1007500048550FE00A20B4FBF0F100FB114707F108
:100760003000C2B22846691CCDB201A90A540A2041
:10077000B4FBF0F4002CEDD100222846691CCDB268
:1007800001A90A5401A8FFF70DFD00F0FF08A8F128
:10079000010046B205E001A9885DFFF761FE701E09
:1007A00046B2002EF7DA1AB0BDE8F081FFF776FF07
:1007B000FFF70EFE3AA0FFF791FD4FF47A70FFF7B6
:1007C0001BFF0120FFF720FE4FF40020374908608F
:1007D000C0124860364888604FEA3020C860002068
:1007E0003449086048608860C860FFF7C1FD56E082
:1007F00002E031A0FFF772FD3248806800F0080087
:100800000028F6D02948FFF729FD00B947E02E4817
:100810000078012842D12DA0FFF760FD4FF47A70D7
:10082000FFF7EAFE00202849087020484068214967
:10083000496888420BD11D4880681E4989688842F2
:1008400005D11A48C0681B49C968884205D00120F3
:10085000FFF7DAFD1EA0FFF741FD0120FFF7D4FDF1
:100860001DA0FFF73BFD13498868FFF765FFC02017
:10087000FFF7CAFD1AA0FFF731FD0E49C868FFF760
:100880005BFF4FF47A70FFF7B7FE0120FFF7BCFD66
:1008900000200849086048608860C86000BFA7E77A
:1008A00041465F4F4E204D4F44450000140000105C
:1008B000AA55AA55440000105478696E672E2E2E52
:1008C0000000000000400440080000104F4B0000F2
:1008D0004552524F522100004441545F413A0000BA
:1008E0004441545F423A000030B500200021174CCB
:1008F00060604FF0807444EA41734C1C250245EA65
:10090000443243EA0204124D2C60001D114C44EAAB
:1009100041734C1C40F2251505EB443243EA0204B6
:100920000B4D6C60001D094CA060440544EA417306
:100930004C1C450145EA443243EA0204044DAC60D4
:10094000024C2061E060606130BD000000C00340E7
:10095000008003400000230178090000000000101F
:1009600014000000080100008C09000014000010B1
:10097000A4020000240100000000000000000000AC
:0C0980000000000000000000000000006B
:04000005000001698D
:00000001FF
